{
  "_format": "hh-sol-artifact-1",
  "contractName": "LendingPool",
  "sourceName": "contracts/LendingPool.sol",
  "abi": [
    {
      "inputs": [
        {
          "internalType": "uint256",
          "name": "_collateralizationRatio",
          "type": "uint256"
        }
      ],
      "stateMutability": "nonpayable",
      "type": "constructor"
    },
    {
      "anonymous": false,
      "inputs": [
        {
          "indexed": false,
          "internalType": "address",
          "name": "borrower",
          "type": "address"
        },
        {
          "indexed": false,
          "internalType": "uint256",
          "name": "amount",
          "type": "uint256"
        },
        {
          "indexed": false,
          "internalType": "uint256",
          "name": "interestRate",
          "type": "uint256"
        },
        {
          "indexed": false,
          "internalType": "uint256",
          "name": "loanTerm",
          "type": "uint256"
        },
        {
          "indexed": false,
          "internalType": "uint256",
          "name": "totalRepaymentAmount",
          "type": "uint256"
        },
        {
          "indexed": false,
          "internalType": "uint256",
          "name": "dueDate",
          "type": "uint256"
        }
      ],
      "name": "Borrow",
      "type": "event"
    },
    {
      "inputs": [
        {
          "internalType": "address",
          "name": "",
          "type": "address"
        }
      ],
      "name": "balances",
      "outputs": [
        {
          "internalType": "uint256",
          "name": "",
          "type": "uint256"
        }
      ],
      "stateMutability": "view",
      "type": "function"
    },
    {
      "inputs": [
        {
          "internalType": "uint256",
          "name": "amount",
          "type": "uint256"
        },
        {
          "internalType": "uint256",
          "name": "loanTerm",
          "type": "uint256"
        }
      ],
      "name": "borrow",
      "outputs": [],
      "stateMutability": "nonpayable",
      "type": "function"
    },
    {
      "inputs": [
        {
          "internalType": "address",
          "name": "",
          "type": "address"
        }
      ],
      "name": "borrowed",
      "outputs": [
        {
          "internalType": "uint256",
          "name": "",
          "type": "uint256"
        }
      ],
      "stateMutability": "view",
      "type": "function"
    },
    {
      "inputs": [
        {
          "internalType": "uint256",
          "name": "principal",
          "type": "uint256"
        },
        {
          "internalType": "uint256",
          "name": "duration",
          "type": "uint256"
        }
      ],
      "name": "calculateInterest",
      "outputs": [
        {
          "internalType": "uint256",
          "name": "",
          "type": "uint256"
        }
      ],
      "stateMutability": "view",
      "type": "function"
    },
    {
      "inputs": [],
      "name": "collateralizationRatio",
      "outputs": [
        {
          "internalType": "uint256",
          "name": "",
          "type": "uint256"
        }
      ],
      "stateMutability": "view",
      "type": "function"
    },
    {
      "inputs": [
        {
          "internalType": "address",
          "name": "user",
          "type": "address"
        },
        {
          "internalType": "uint256",
          "name": "amount",
          "type": "uint256"
        }
      ],
      "name": "decreaseTotalBarrowedLimitOf",
      "outputs": [],
      "stateMutability": "nonpayable",
      "type": "function"
    },
    {
      "inputs": [
        {
          "internalType": "uint256",
          "name": "amount",
          "type": "uint256"
        }
      ],
      "name": "deposit",
      "outputs": [],
      "stateMutability": "payable",
      "type": "function"
    },
    {
      "inputs": [],
      "name": "deposit",
      "outputs": [],
      "stateMutability": "payable",
      "type": "function"
    },
    {
      "inputs": [
        {
          "internalType": "address",
          "name": "",
          "type": "address"
        },
        {
          "internalType": "uint256",
          "name": "",
          "type": "uint256"
        }
      ],
      "name": "deposits",
      "outputs": [
        {
          "internalType": "uint256",
          "name": "timestamp",
          "type": "uint256"
        },
        {
          "internalType": "uint256",
          "name": "balance",
          "type": "uint256"
        },
        {
          "internalType": "uint256",
          "name": "duration",
          "type": "uint256"
        }
      ],
      "stateMutability": "view",
      "type": "function"
    },
    {
      "inputs": [],
      "name": "getInterestRate",
      "outputs": [
        {
          "internalType": "uint256",
          "name": "",
          "type": "uint256"
        }
      ],
      "stateMutability": "view",
      "type": "function"
    },
    {
      "inputs": [
        {
          "internalType": "address",
          "name": "user",
          "type": "address"
        },
        {
          "internalType": "uint256",
          "name": "amount",
          "type": "uint256"
        }
      ],
      "name": "increaseTotalBarrowedLimitOf",
      "outputs": [],
      "stateMutability": "nonpayable",
      "type": "function"
    },
    {
      "inputs": [
        {
          "internalType": "uint256",
          "name": "index",
          "type": "uint256"
        }
      ],
      "name": "repay",
      "outputs": [],
      "stateMutability": "payable",
      "type": "function"
    },
    {
      "inputs": [
        {
          "internalType": "address",
          "name": "",
          "type": "address"
        },
        {
          "internalType": "uint256",
          "name": "",
          "type": "uint256"
        }
      ],
      "name": "repayments",
      "outputs": [
        {
          "internalType": "uint256",
          "name": "amount",
          "type": "uint256"
        },
        {
          "internalType": "uint256",
          "name": "dueDate",
          "type": "uint256"
        },
        {
          "internalType": "bool",
          "name": "paid",
          "type": "bool"
        }
      ],
      "stateMutability": "view",
      "type": "function"
    },
    {
      "inputs": [
        {
          "internalType": "uint256",
          "name": "_interestRate",
          "type": "uint256"
        }
      ],
      "name": "setInterestRate",
      "outputs": [],
      "stateMutability": "nonpayable",
      "type": "function"
    },
    {
      "inputs": [
        {
          "internalType": "address",
          "name": "",
          "type": "address"
        }
      ],
      "name": "totalBarrowedLimit",
      "outputs": [
        {
          "internalType": "uint256",
          "name": "",
          "type": "uint256"
        }
      ],
      "stateMutability": "view",
      "type": "function"
    },
    {
      "inputs": [],
      "name": "totalDeposits",
      "outputs": [
        {
          "internalType": "uint256",
          "name": "",
          "type": "uint256"
        }
      ],
      "stateMutability": "view",
      "type": "function"
    },
    {
      "inputs": [
        {
          "internalType": "uint256",
          "name": "amount",
          "type": "uint256"
        }
      ],
      "name": "withdraw",
      "outputs": [],
      "stateMutability": "nonpayable",
      "type": "function"
    },
    {
      "inputs": [],
      "name": "withdraw",
      "outputs": [],
      "stateMutability": "nonpayable",
      "type": "function"
    }
  ],
  "bytecode": "0x60806040526103e8600055600c6001553480156200001c57600080fd5b50604051620019d9380380620019d9833981810160405281019062000042919062000090565b8060078190555050620000c2565b600080fd5b6000819050919050565b6200006a8162000055565b81146200007657600080fd5b50565b6000815190506200008a816200005f565b92915050565b600060208284031215620000a957620000a862000050565b5b6000620000b98482850162000079565b91505092915050565b61190780620000d26000396000f3fe6080604052600436106101095760003560e01c80637ca5df5211610095578063c4713aa411610064578063c4713aa41461034d578063d0e30db014610376578063d6d6817714610380578063dcaf9c44146103bf578063efdd7c07146103ea57610109565b80637ca5df521461029e5780637d882097146102c75780638ff547ea146102f2578063b6b55f251461033157610109565b80632e1a7d4d116100dc5780632e1a7d4d146101ee578063371fd8e6146102175780633ccfd60b146102335780635257b5661461024a5780635f84f3021461027557610109565b80630941cb3d1461010e5780630ecbcdab1461014b57806310bb20ec1461017457806327e235e3146101b1575b600080fd5b34801561011a57600080fd5b50610135600480360381019061013091906110c7565b610427565b604051610142919061110d565b60405180910390f35b34801561015757600080fd5b50610172600480360381019061016d9190611154565b61043f565b005b34801561018057600080fd5b5061019b600480360381019061019691906110c7565b61079e565b6040516101a8919061110d565b60405180910390f35b3480156101bd57600080fd5b506101d860048036038101906101d391906110c7565b6107b6565b6040516101e5919061110d565b60405180910390f35b3480156101fa57600080fd5b5061021560048036038101906102109190611194565b6107ce565b005b610231600480360381019061022c9190611194565b6108f0565b005b34801561023f57600080fd5b50610248610a90565b005b34801561025657600080fd5b5061025f610cac565b60405161026c919061110d565b60405180910390f35b34801561028157600080fd5b5061029c60048036038101906102979190611194565b610cb6565b005b3480156102aa57600080fd5b506102c560048036038101906102c091906111c1565b610cc0565b005b3480156102d357600080fd5b506102dc610da7565b6040516102e9919061110d565b60405180910390f35b3480156102fe57600080fd5b50610319600480360381019061031491906111c1565b610dad565b6040516103289392919061121c565b60405180910390f35b61034b60048036038101906103469190611194565b610e01565b005b34801561035957600080fd5b50610374600480360381019061036f91906111c1565b610f03565b005b61037e610f5d565b005b34801561038c57600080fd5b506103a760048036038101906103a291906111c1565b610fce565b6040516103b693929190611253565b60405180910390f35b3480156103cb57600080fd5b506103d4611015565b6040516103e1919061110d565b60405180910390f35b3480156103f657600080fd5b50610411600480360381019061040c9190611154565b61101b565b60405161041e919061110d565b60405180910390f35b60046020528060005260406000206000915090505481565b60006007548361044f91906112b9565b905080600360003373ffffffffffffffffffffffffffffffffffffffff1673ffffffffffffffffffffffffffffffffffffffff1681526020019081526020016000205410156104d3576040517f08c379a00000000000000000000000000000000000000000000000000000000081526004016104ca90611358565b60405180910390fd5b82600560003373ffffffffffffffffffffffffffffffffffffffff1673ffffffffffffffffffffffffffffffffffffffff1681526020019081526020016000205411610554576040517f08c379a000000000000000000000000000000000000000000000000000000000815260040161054b906113c4565b60405180910390fd5b826008541015610599576040517f08c379a000000000000000000000000000000000000000000000000000000000815260040161059090611430565b60405180910390fd5b6000606483600154866105ac91906112b9565b6105b691906112b9565b6105c0919061147f565b846105cb91906114b0565b905083600860008282546105df91906114e4565b925050819055503373ffffffffffffffffffffffffffffffffffffffff166108fc859081150290604051600060405180830381858888f1935050505015801561062c573d6000803e3d6000fd5b5083600460003373ffffffffffffffffffffffffffffffffffffffff1673ffffffffffffffffffffffffffffffffffffffff168152602001908152602001600020600082825461067c91906114b0565b92505081905550600660003373ffffffffffffffffffffffffffffffffffffffff1673ffffffffffffffffffffffffffffffffffffffff168152602001908152602001600020604051806060016040528083815260200185426106df91906114b0565b8152602001600015158152509080600181540180825580915050600190039060005260206000209060030201600090919091909150600082015181600001556020820151816001015560408201518160020160006101000a81548160ff02191690831515021790555050507f212a25b7e6d62ca82a704bf5f0513e2d0840e89914c62639dceabfb40a34491a33856001548685884261077e91906114b0565b60405161079096959493929190611527565b60405180910390a150505050565b60056020528060005260406000206000915090505481565b60036020528060005260406000206000915090505481565b80600360003373ffffffffffffffffffffffffffffffffffffffff1673ffffffffffffffffffffffffffffffffffffffff168152602001908152602001600020541015610850576040517f08c379a0000000000000000000000000000000000000000000000000000000008152600401610847906115d4565b60405180910390fd5b80600360003373ffffffffffffffffffffffffffffffffffffffff1673ffffffffffffffffffffffffffffffffffffffff168152602001908152602001600020600082825461089f91906114e4565b925050819055503373ffffffffffffffffffffffffffffffffffffffff166108fc829081150290604051600060405180830381858888f193505050501580156108ec573d6000803e3d6000fd5b5050565b600660003373ffffffffffffffffffffffffffffffffffffffff1673ffffffffffffffffffffffffffffffffffffffff168152602001908152602001600020805490508110610974576040517f08c379a000000000000000000000000000000000000000000000000000000000815260040161096b90611640565b60405180910390fd5b6000600660003373ffffffffffffffffffffffffffffffffffffffff1673ffffffffffffffffffffffffffffffffffffffff16815260200190815260200160002082815481106109c7576109c6611660565b5b906000526020600020906003020190508060020160009054906101000a900460ff1615610a29576040517f08c379a0000000000000000000000000000000000000000000000000000000008152600401610a20906116db565b60405180910390fd5b80600001543414610a6f576040517f08c379a0000000000000000000000000000000000000000000000000000000008152600401610a6690611747565b60405180910390fd5b60018160020160006101000a81548160ff0219169083151502179055505050565b6000600260003373ffffffffffffffffffffffffffffffffffffffff1673ffffffffffffffffffffffffffffffffffffffff168152602001908152602001600020805480602002602001604051908101604052809291908181526020016000905b82821015610b415783829060005260206000209060030201604051806060016040529081600082015481526020016001820154815260200160028201548152505081526020019060010190610af1565b505050509050600080825190505b60008114610c1c576000838281518110610b6c57610b6b611660565b5b60200260200101516000015142610b8391906114e4565b9050600154848381518110610b9b57610b9a611660565b5b602002602001015160200151610bb191906114b0565b83610bbc91906114b0565b92506000848381518110610bd357610bd2611660565b5b6020026020010151602001818152505080848381518110610bf757610bf6611660565b5b6020026020010151604001818152505050600a81610c1591906114e4565b9050610b4f565b508060005411610c61576040517f08c379a0000000000000000000000000000000000000000000000000000000008152600401610c58906117b3565b60405180910390fd5b3373ffffffffffffffffffffffffffffffffffffffff166108fc829081150290604051600060405180830381858888f19350505050158015610ca7573d6000803e3d6000fd5b505050565b6000600154905090565b8060018190555050565b600081600560008573ffffffffffffffffffffffffffffffffffffffff1673ffffffffffffffffffffffffffffffffffffffff16815260200190815260200160002054610d0d91906114e4565b11610d4d576040517f08c379a0000000000000000000000000000000000000000000000000000000008152600401610d4490611845565b60405180910390fd5b80600560008473ffffffffffffffffffffffffffffffffffffffff1673ffffffffffffffffffffffffffffffffffffffff1681526020019081526020016000206000828254610d9c91906114e4565b925050819055505050565b60085481565b60066020528160005260406000208181548110610dc957600080fd5b9060005260206000209060030201600091509150508060000154908060010154908060020160009054906101000a900460ff16905083565b60008111610e44576040517f08c379a0000000000000000000000000000000000000000000000000000000008152600401610e3b906118b1565b60405180910390fd5b600260003373ffffffffffffffffffffffffffffffffffffffff1673ffffffffffffffffffffffffffffffffffffffff168152602001908152602001600020604051806060016040528042815260200183815260200160008152509080600181540180825580915050600190039060005260206000209060030201600090919091909150600082015181600001556020820151816001015560408201518160020155505080600080828254610ef991906114b0565b9250508190555050565b80600560008473ffffffffffffffffffffffffffffffffffffffff1673ffffffffffffffffffffffffffffffffffffffff1681526020019081526020016000206000828254610f5291906114b0565b925050819055505050565b34600360003373ffffffffffffffffffffffffffffffffffffffff1673ffffffffffffffffffffffffffffffffffffffff1681526020019081526020016000206000828254610fac91906114b0565b925050819055503460086000828254610fc591906114b0565b92505081905550565b60026020528160005260406000208181548110610fea57600080fd5b9060005260206000209060030201600091509150508060000154908060010154908060020154905083565b60075481565b600080606460015461102d919061147f565b905060006301e1338084838761104391906112b9565b61104d91906112b9565b611057919061147f565b9050809250505092915050565b600080fd5b600073ffffffffffffffffffffffffffffffffffffffff82169050919050565b600061109482611069565b9050919050565b6110a481611089565b81146110af57600080fd5b50565b6000813590506110c18161109b565b92915050565b6000602082840312156110dd576110dc611064565b5b60006110eb848285016110b2565b91505092915050565b6000819050919050565b611107816110f4565b82525050565b600060208201905061112260008301846110fe565b92915050565b611131816110f4565b811461113c57600080fd5b50565b60008135905061114e81611128565b92915050565b6000806040838503121561116b5761116a611064565b5b60006111798582860161113f565b925050602061118a8582860161113f565b9150509250929050565b6000602082840312156111aa576111a9611064565b5b60006111b88482850161113f565b91505092915050565b600080604083850312156111d8576111d7611064565b5b60006111e6858286016110b2565b92505060206111f78582860161113f565b9150509250929050565b60008115159050919050565b61121681611201565b82525050565b600060608201905061123160008301866110fe565b61123e60208301856110fe565b61124b604083018461120d565b949350505050565b600060608201905061126860008301866110fe565b61127560208301856110fe565b61128260408301846110fe565b949350505050565b7f4e487b7100000000000000000000000000000000000000000000000000000000600052601160045260246000fd5b60006112c4826110f4565b91506112cf836110f4565b92508282026112dd816110f4565b915082820484148315176112f4576112f361128a565b5b5092915050565b600082825260208201905092915050565b7f496e73756666696369656e7420636f6c6c61746572616c000000000000000000600082015250565b60006113426017836112fb565b915061134d8261130c565b602082019050919050565b6000602082019050818103600083015261137181611335565b9050919050565b7f496e73756666696369656e7420626172726f77206c696d697400000000000000600082015250565b60006113ae6019836112fb565b91506113b982611378565b602082019050919050565b600060208201905081810360008301526113dd816113a1565b9050919050565b7f496e73756666696369656e74206465706f736974000000000000000000000000600082015250565b600061141a6014836112fb565b9150611425826113e4565b602082019050919050565b600060208201905081810360008301526114498161140d565b9050919050565b7f4e487b7100000000000000000000000000000000000000000000000000000000600052601260045260246000fd5b600061148a826110f4565b9150611495836110f4565b9250826114a5576114a4611450565b5b828204905092915050565b60006114bb826110f4565b91506114c6836110f4565b92508282019050808211156114de576114dd61128a565b5b92915050565b60006114ef826110f4565b91506114fa836110f4565b92508282039050818111156115125761151161128a565b5b92915050565b61152181611089565b82525050565b600060c08201905061153c6000830189611518565b61154960208301886110fe565b61155660408301876110fe565b61156360608301866110fe565b61157060808301856110fe565b61157d60a08301846110fe565b979650505050505050565b7f496e73756666696369656e742062616c616e6365000000000000000000000000600082015250565b60006115be6014836112fb565b91506115c982611588565b602082019050919050565b600060208201905081810360008301526115ed816115b1565b9050919050565b7f496e76616c69642072657061796d656e7420696e646578000000000000000000600082015250565b600061162a6017836112fb565b9150611635826115f4565b602082019050919050565b600060208201905081810360008301526116598161161d565b9050919050565b7f4e487b7100000000000000000000000000000000000000000000000000000000600052603260045260246000fd5b7f52657061796d656e7420616c7265616479207061696400000000000000000000600082015250565b60006116c56016836112fb565b91506116d08261168f565b602082019050919050565b600060208201905081810360008301526116f4816116b8565b9050919050565b7f496e636f72726563742072657061796d656e7420616d6f756e74000000000000600082015250565b6000611731601a836112fb565b915061173c826116fb565b602082019050919050565b6000602082019050818103600083015261176081611724565b9050919050565b7f546f74616c20737570706c79206973206e6f7420656e6f756768000000000000600082015250565b600061179d601a836112fb565b91506117a882611767565b602082019050919050565b600060208201905081810360008301526117cc81611790565b9050919050565b7f546f74616c206c696d69742063616e6e6f74206265206c657373207468616e2060008201527f7a65726f00000000000000000000000000000000000000000000000000000000602082015250565b600061182f6024836112fb565b915061183a826117d3565b604082019050919050565b6000602082019050818103600083015261185e81611822565b9050919050565b7f56616c7565206d75737420626520626967676572207468616e20300000000000600082015250565b600061189b601b836112fb565b91506118a682611865565b602082019050919050565b600060208201905081810360008301526118ca8161188e565b905091905056fea26469706673582212205702f19314307227bab4c832c4a9dbf6684428704b68cf94900fb10ff97fed8764736f6c63430008130033",
  "linkReferences": {},
  "deployedLinkReferences": {}
}