{
  "_format": "hh-sol-artifact-1",
  "contractName": "LendingPool",
  "sourceName": "contracts/LendingPool.sol",
  "abi": [
    {
      "inputs": [
        {
          "internalType": "uint256",
          "name": "principal",
          "type": "uint256"
        },
        {
          "internalType": "uint256",
          "name": "interestRate",
          "type": "uint256"
        },
        {
          "internalType": "uint256",
          "name": "duration",
          "type": "uint256"
        }
      ],
      "name": "calculateInterest",
      "outputs": [
        {
          "internalType": "uint256",
          "name": "",
          "type": "uint256"
        }
      ],
      "stateMutability": "pure",
      "type": "function"
    },
    {
      "inputs": [
        {
          "internalType": "uint256",
          "name": "amount",
          "type": "uint256"
        }
      ],
      "name": "deposit",
      "outputs": [],
      "stateMutability": "payable",
      "type": "function"
    },
    {
      "inputs": [
        {
          "internalType": "address",
          "name": "",
          "type": "address"
        },
        {
          "internalType": "uint256",
          "name": "",
          "type": "uint256"
        }
      ],
      "name": "deposits",
      "outputs": [
        {
          "internalType": "uint256",
          "name": "timestamp",
          "type": "uint256"
        },
        {
          "internalType": "uint256",
          "name": "balance",
          "type": "uint256"
        },
        {
          "internalType": "uint256",
          "name": "duration",
          "type": "uint256"
        }
      ],
      "stateMutability": "view",
      "type": "function"
    },
    {
      "inputs": [],
      "name": "withdraw",
      "outputs": [],
      "stateMutability": "nonpayable",
      "type": "function"
    }
  ],
  "bytecode": "0x60806040526103e860005534801561001657600080fd5b5061090e806100266000396000f3fe60806040526004361061003f5760003560e01c806305e1bd8c146100445780633ccfd60b14610081578063b6b55f2514610098578063d6d68177146100b4575b600080fd5b34801561005057600080fd5b5061006b60048036038101906100669190610508565b6100f3565b604051610078919061056a565b60405180910390f35b34801561008d57600080fd5b5061009661013b565b005b6100b260048036038101906100ad9190610585565b610384565b005b3480156100c057600080fd5b506100db60048036038101906100d69190610610565b610486565b6040516100ea93929190610650565b60405180910390f35b60008060648461010391906106e5565b905060006301e133808483886101199190610716565b6101239190610716565b61012d91906106e5565b905080925050509392505050565b6000600160003373ffffffffffffffffffffffffffffffffffffffff1673ffffffffffffffffffffffffffffffffffffffff168152602001908152602001600020805480602002602001604051908101604052809291908181526020016000905b828210156101ec578382906000526020600020906003020160405180606001604052908160008201548152602001600182015481526020016002820154815250508152602001906001019061019c565b505050509050600080825190505b600081146102f457600083828151811061021757610216610758565b5b6020026020010151600001514261022e9190610787565b9050600061025c85848151811061024857610247610758565b5b602002602001015160200151600a846100f3565b90508085848151811061027257610271610758565b5b60200260200101516020015161028891906107bb565b8461029391906107bb565b935060008584815181106102aa576102a9610758565b5b60200260200101516020018181525050818584815181106102ce576102cd610758565b5b602002602001015160400181815250505050600a816102ed9190610787565b90506101fa565b508060005411610339576040517f08c379a00000000000000000000000000000000000000000000000000000000081526004016103309061084c565b60405180910390fd5b3373ffffffffffffffffffffffffffffffffffffffff166108fc829081150290604051600060405180830381858888f1935050505015801561037f573d6000803e3d6000fd5b505050565b600081116103c7576040517f08c379a00000000000000000000000000000000000000000000000000000000081526004016103be906108b8565b60405180910390fd5b600160003373ffffffffffffffffffffffffffffffffffffffff1673ffffffffffffffffffffffffffffffffffffffff16815260200190815260200160002060405180606001604052804281526020018381526020016000815250908060018154018082558091505060019003906000526020600020906003020160009091909190915060008201518160000155602082015181600101556040820151816002015550508060008082825461047c91906107bb565b9250508190555050565b600160205281600052604060002081815481106104a257600080fd5b9060005260206000209060030201600091509150508060000154908060010154908060020154905083565b600080fd5b6000819050919050565b6104e5816104d2565b81146104f057600080fd5b50565b600081359050610502816104dc565b92915050565b600080600060608486031215610521576105206104cd565b5b600061052f868287016104f3565b9350506020610540868287016104f3565b9250506040610551868287016104f3565b9150509250925092565b610564816104d2565b82525050565b600060208201905061057f600083018461055b565b92915050565b60006020828403121561059b5761059a6104cd565b5b60006105a9848285016104f3565b91505092915050565b600073ffffffffffffffffffffffffffffffffffffffff82169050919050565b60006105dd826105b2565b9050919050565b6105ed816105d2565b81146105f857600080fd5b50565b60008135905061060a816105e4565b92915050565b60008060408385031215610627576106266104cd565b5b6000610635858286016105fb565b9250506020610646858286016104f3565b9150509250929050565b6000606082019050610665600083018661055b565b610672602083018561055b565b61067f604083018461055b565b949350505050565b7f4e487b7100000000000000000000000000000000000000000000000000000000600052601260045260246000fd5b7f4e487b7100000000000000000000000000000000000000000000000000000000600052601160045260246000fd5b60006106f0826104d2565b91506106fb836104d2565b92508261070b5761070a610687565b5b828204905092915050565b6000610721826104d2565b915061072c836104d2565b925082820261073a816104d2565b91508282048414831517610751576107506106b6565b5b5092915050565b7f4e487b7100000000000000000000000000000000000000000000000000000000600052603260045260246000fd5b6000610792826104d2565b915061079d836104d2565b92508282039050818111156107b5576107b46106b6565b5b92915050565b60006107c6826104d2565b91506107d1836104d2565b92508282019050808211156107e9576107e86106b6565b5b92915050565b600082825260208201905092915050565b7f546f74616c20737570706c79206973206e6f7420656e6f756768740000000000600082015250565b6000610836601b836107ef565b915061084182610800565b602082019050919050565b6000602082019050818103600083015261086581610829565b9050919050565b7f56616c7565206d75737420626520626967676572207468616e20300000000000600082015250565b60006108a2601b836107ef565b91506108ad8261086c565b602082019050919050565b600060208201905081810360008301526108d181610895565b905091905056fea264697066735822122084bf0cc5bf6a3efd8a1672a300f1e4c03f101ef8e0c1a8a940e92d747129220f64736f6c63430008130033",
  "linkReferences": {},
  "deployedLinkReferences": {}
}