{
  "_format": "hh-sol-artifact-1",
  "contractName": "Oracle",
  "sourceName": "contracts/Oracle.sol",
  "abi": [
    {
      "inputs": [
        {
          "internalType": "address",
          "name": "user",
          "type": "address"
        },
        {
          "internalType": "uint256",
          "name": "interestRate",
          "type": "uint256"
        }
      ],
      "name": "decreaseTotalBarrowedLimitOf",
      "outputs": [
        {
          "internalType": "bool",
          "name": "",
          "type": "bool"
        }
      ],
      "stateMutability": "nonpayable",
      "type": "function"
    },
    {
      "inputs": [],
      "name": "getLendingPoolAddress",
      "outputs": [
        {
          "internalType": "address",
          "name": "",
          "type": "address"
        }
      ],
      "stateMutability": "view",
      "type": "function"
    },
    {
      "inputs": [
        {
          "internalType": "address",
          "name": "user",
          "type": "address"
        },
        {
          "internalType": "uint256",
          "name": "interestRate",
          "type": "uint256"
        }
      ],
      "name": "increaseTotalBarrowedLimitOf",
      "outputs": [
        {
          "internalType": "bool",
          "name": "",
          "type": "bool"
        }
      ],
      "stateMutability": "nonpayable",
      "type": "function"
    },
    {
      "inputs": [
        {
          "internalType": "uint256",
          "name": "interestRate",
          "type": "uint256"
        }
      ],
      "name": "setInterestRate",
      "outputs": [
        {
          "internalType": "bool",
          "name": "",
          "type": "bool"
        }
      ],
      "stateMutability": "nonpayable",
      "type": "function"
    },
    {
      "inputs": [
        {
          "internalType": "address",
          "name": "_lendingPoolAddress",
          "type": "address"
        }
      ],
      "name": "setLendingPoolAddress",
      "outputs": [],
      "stateMutability": "nonpayable",
      "type": "function"
    }
  ],
  "bytecode": "0x608060405234801561001057600080fd5b506107db806100206000396000f3fe608060405234801561001057600080fd5b50600436106100575760003560e01c80635f36a7421461005c5780635f84f3021461007a5780637ca5df52146100aa578063c4713aa4146100da578063ed3f827a1461010a575b600080fd5b610064610126565b6040516100719190610578565b60405180910390f35b610094600480360381019061008f91906105ce565b61014f565b6040516100a19190610616565b60405180910390f35b6100c460048036038101906100bf919061065d565b610284565b6040516100d19190610616565b60405180910390f35b6100f460048036038101906100ef919061065d565b6103bc565b6040516101019190610616565b60405180910390f35b610124600480360381019061011f919061069d565b6104f4565b005b60008060009054906101000a900473ffffffffffffffffffffffffffffffffffffffff16905090565b6000808260405160240161016391906106d9565b6040516020818303038152906040527f5f84f302000000000000000000000000000000000000000000000000000000007bffffffffffffffffffffffffffffffffffffffffffffffffffffffff19166020820180517bffffffffffffffffffffffffffffffffffffffffffffffffffffffff8381831617835250505050905060008060009054906101000a900473ffffffffffffffffffffffffffffffffffffffff1673ffffffffffffffffffffffffffffffffffffffff168260405161022a9190610765565b6000604051808303816000865af19150503d8060008114610267576040519150601f19603f3d011682016040523d82523d6000602084013e61026c565b606091505b505090508061027a57600080fd5b8092505050919050565b600080838360405160240161029a92919061077c565b6040516020818303038152906040527f7ca5df52000000000000000000000000000000000000000000000000000000007bffffffffffffffffffffffffffffffffffffffffffffffffffffffff19166020820180517bffffffffffffffffffffffffffffffffffffffffffffffffffffffff8381831617835250505050905060008060009054906101000a900473ffffffffffffffffffffffffffffffffffffffff1673ffffffffffffffffffffffffffffffffffffffff16826040516103619190610765565b6000604051808303816000865af19150503d806000811461039e576040519150601f19603f3d011682016040523d82523d6000602084013e6103a3565b606091505b50509050806103b157600080fd5b809250505092915050565b60008083836040516024016103d292919061077c565b6040516020818303038152906040527fc4713aa4000000000000000000000000000000000000000000000000000000007bffffffffffffffffffffffffffffffffffffffffffffffffffffffff19166020820180517bffffffffffffffffffffffffffffffffffffffffffffffffffffffff8381831617835250505050905060008060009054906101000a900473ffffffffffffffffffffffffffffffffffffffff1673ffffffffffffffffffffffffffffffffffffffff16826040516104999190610765565b6000604051808303816000865af19150503d80600081146104d6576040519150601f19603f3d011682016040523d82523d6000602084013e6104db565b606091505b50509050806104e957600080fd5b809250505092915050565b806000806101000a81548173ffffffffffffffffffffffffffffffffffffffff021916908373ffffffffffffffffffffffffffffffffffffffff16021790555050565b600073ffffffffffffffffffffffffffffffffffffffff82169050919050565b600061056282610537565b9050919050565b61057281610557565b82525050565b600060208201905061058d6000830184610569565b92915050565b600080fd5b6000819050919050565b6105ab81610598565b81146105b657600080fd5b50565b6000813590506105c8816105a2565b92915050565b6000602082840312156105e4576105e3610593565b5b60006105f2848285016105b9565b91505092915050565b60008115159050919050565b610610816105fb565b82525050565b600060208201905061062b6000830184610607565b92915050565b61063a81610557565b811461064557600080fd5b50565b60008135905061065781610631565b92915050565b6000806040838503121561067457610673610593565b5b600061068285828601610648565b9250506020610693858286016105b9565b9150509250929050565b6000602082840312156106b3576106b2610593565b5b60006106c184828501610648565b91505092915050565b6106d381610598565b82525050565b60006020820190506106ee60008301846106ca565b92915050565b600081519050919050565b600081905092915050565b60005b8381101561072857808201518184015260208101905061070d565b60008484015250505050565b600061073f826106f4565b61074981856106ff565b935061075981856020860161070a565b80840191505092915050565b60006107718284610734565b915081905092915050565b60006040820190506107916000830185610569565b61079e60208301846106ca565b939250505056fea264697066735822122002275be514701ea7dd97e9c21f131f700dc58aa2b8b77c3227a71959d3f7125764736f6c63430008130033",
  "linkReferences": {},
  "deployedLinkReferences": {}
}