{
  "_format": "hh-sol-artifact-1",
  "contractName": "Wallet",
  "sourceName": "contracts/Wallet.sol",
  "abi": [
    {
      "inputs": [
        {
          "internalType": "address",
          "name": "userAddress",
          "type": "address"
        },
        {
          "internalType": "string",
          "name": "sign",
          "type": "string"
        }
      ],
      "name": "addNewAsset",
      "outputs": [],
      "stateMutability": "nonpayable",
      "type": "function"
    },
    {
      "inputs": [
        {
          "internalType": "string",
          "name": "str1",
          "type": "string"
        },
        {
          "internalType": "string",
          "name": "str2",
          "type": "string"
        }
      ],
      "name": "compareStrings",
      "outputs": [
        {
          "internalType": "bool",
          "name": "",
          "type": "bool"
        }
      ],
      "stateMutability": "pure",
      "type": "function"
    },
    {
      "inputs": [
        {
          "internalType": "string",
          "name": "passwordSaver",
          "type": "string"
        },
        {
          "internalType": "string",
          "name": "password",
          "type": "string"
        },
        {
          "internalType": "string",
          "name": "username",
          "type": "string"
        }
      ],
      "name": "createUserAddress",
      "outputs": [
        {
          "internalType": "address",
          "name": "",
          "type": "address"
        }
      ],
      "stateMutability": "nonpayable",
      "type": "function"
    },
    {
      "inputs": [
        {
          "internalType": "address",
          "name": "userAddress",
          "type": "address"
        },
        {
          "internalType": "string",
          "name": "sign",
          "type": "string"
        },
        {
          "internalType": "uint256",
          "name": "amount",
          "type": "uint256"
        }
      ],
      "name": "depositAsset",
      "outputs": [],
      "stateMutability": "nonpayable",
      "type": "function"
    },
    {
      "inputs": [
        {
          "internalType": "address",
          "name": "userAddresss",
          "type": "address"
        }
      ],
      "name": "getUserAssets",
      "outputs": [
        {
          "components": [
            {
              "internalType": "string",
              "name": "sign",
              "type": "string"
            },
            {
              "internalType": "uint256",
              "name": "amount",
              "type": "uint256"
            }
          ],
          "internalType": "struct Wallet.Asset[]",
          "name": "",
          "type": "tuple[]"
        }
      ],
      "stateMutability": "view",
      "type": "function"
    },
    {
      "inputs": [
        {
          "internalType": "address",
          "name": "userAddress",
          "type": "address"
        },
        {
          "internalType": "string",
          "name": "sign",
          "type": "string"
        }
      ],
      "name": "isAssetExist",
      "outputs": [
        {
          "internalType": "bool",
          "name": "",
          "type": "bool"
        }
      ],
      "stateMutability": "view",
      "type": "function"
    },
    {
      "inputs": [
        {
          "internalType": "address",
          "name": "",
          "type": "address"
        }
      ],
      "name": "userWallets",
      "outputs": [
        {
          "internalType": "string",
          "name": "passwordSaver",
          "type": "string"
        },
        {
          "internalType": "string",
          "name": "password",
          "type": "string"
        },
        {
          "internalType": "uint256",
          "name": "assetCount",
          "type": "uint256"
        }
      ],
      "stateMutability": "view",
      "type": "function"
    },
    {
      "inputs": [
        {
          "internalType": "address",
          "name": "userAddress",
          "type": "address"
        },
        {
          "internalType": "string",
          "name": "sign",
          "type": "string"
        },
        {
          "internalType": "uint256",
          "name": "amount",
          "type": "uint256"
        }
      ],
      "name": "withdrawAsset",
      "outputs": [],
      "stateMutability": "nonpayable",
      "type": "function"
    }
  ],
  "bytecode": "0x608060405234801561001057600080fd5b506116eb806100206000396000f3fe608060405234801561001057600080fd5b50600436106100885760003560e01c8063765ff0611161005b578063765ff061146101275780638571faff14610157578063bed34bba14610187578063e98b9469146101b757610088565b806320f02ec71461008d57806342bcaff7146100a957806345512594146100d957806363e6ffdd146100f5575b600080fd5b6100a760048036038101906100a29190610cf2565b6101d3565b005b6100c360048036038101906100be9190610d61565b61032e565b6040516100d09190610dd8565b60405180910390f35b6100f360048036038101906100ee9190610cf2565b61045a565b005b61010f600480360381019061010a9190610df3565b6105b5565b60405161011e93929190610eae565b60405180910390f35b610141600480360381019061013c9190610df3565b6106ef565b60405161014e919061104b565b60405180910390f35b610171600480360381019061016c919061106d565b610896565b60405161017e9190611123565b60405180910390f35b6101a1600480360381019061019c919061113e565b610920565b6040516101ae9190610dd8565b60405180910390f35b6101d160048036038101906101cc9190611216565b610979565b005b60008060008573ffffffffffffffffffffffffffffffffffffffff1673ffffffffffffffffffffffffffffffffffffffff168152602001908152602001600020905060005b8160020154811015610327576102ce826003016000838152602001908152602001600020600001805461024a906112a5565b80601f0160208091040260200160405190810160405280929190818152602001828054610276906112a5565b80156102c35780601f10610298576101008083540402835291602001916102c3565b820191906000526020600020905b8154815290600101906020018083116102a657829003601f168201915b505050505085610920565b156103145782826003016000838152602001908152602001600020600101546102f79190611305565b826003016000838152602001908152602001600020600101819055505b808061031f90611339565b915050610218565b5050505050565b6000806000808573ffffffffffffffffffffffffffffffffffffffff1673ffffffffffffffffffffffffffffffffffffffff168152602001908152602001600020905060005b816002015481101561044d5761042a82600301600083815260200190815260200160002060000180546103a6906112a5565b80601f01602080910402602001604051908101604052809291908181526020018280546103d2906112a5565b801561041f5780601f106103f45761010080835404028352916020019161041f565b820191906000526020600020905b81548152906001019060200180831161040257829003601f168201915b505050505085610920565b1561043a57600192505050610454565b808061044590611339565b915050610374565b5060009150505b92915050565b60008060008573ffffffffffffffffffffffffffffffffffffffff1673ffffffffffffffffffffffffffffffffffffffff168152602001908152602001600020905060005b81600201548110156105ae5761055582600301600083815260200190815260200160002060000180546104d1906112a5565b80601f01602080910402602001604051908101604052809291908181526020018280546104fd906112a5565b801561054a5780601f1061051f5761010080835404028352916020019161054a565b820191906000526020600020905b81548152906001019060200180831161052d57829003601f168201915b505050505085610920565b1561059b57828260030160008381526020019081526020016000206001015461057e9190611381565b826003016000838152602001908152602001600020600101819055505b80806105a690611339565b91505061049f565b5050505050565b60006020528060005260406000206000915090508060000180546105d8906112a5565b80601f0160208091040260200160405190810160405280929190818152602001828054610604906112a5565b80156106515780601f1061062657610100808354040283529160200191610651565b820191906000526020600020905b81548152906001019060200180831161063457829003601f168201915b505050505090806001018054610666906112a5565b80601f0160208091040260200160405190810160405280929190818152602001828054610692906112a5565b80156106df5780601f106106b4576101008083540402835291602001916106df565b820191906000526020600020905b8154815290600101906020018083116106c257829003601f168201915b5050505050908060020154905083565b606060008060008473ffffffffffffffffffffffffffffffffffffffff1673ffffffffffffffffffffffffffffffffffffffff16815260200190815260200160002090506000816002015467ffffffffffffffff81111561075357610752610b91565b5b60405190808252806020026020018201604052801561078c57816020015b610779610aea565b8152602001906001900390816107715790505b50905060005b826002015481101561088b578260030160008281526020019081526020016000206040518060400160405290816000820180546107ce906112a5565b80601f01602080910402602001604051908101604052809291908181526020018280546107fa906112a5565b80156108475780601f1061081c57610100808354040283529160200191610847565b820191906000526020600020905b81548152906001019060200180831161082a57829003601f168201915b5050505050815260200160018201548152505082828151811061086d5761086c6113b5565b5b6020026020010181905250808061088390611339565b915050610792565b508092505050919050565b6000806108a283610acb565b905060008060008373ffffffffffffffffffffffffffffffffffffffff1673ffffffffffffffffffffffffffffffffffffffff1681526020019081526020016000209050848160010190816108f79190611590565b50858160000190816109099190611590565b506000816002018190555081925050509392505050565b600081604051602001610933919061169e565b604051602081830303815290604052805190602001208360405160200161095a919061169e565b6040516020818303038152906040528051906020012014905092915050565b60008060008573ffffffffffffffffffffffffffffffffffffffff1673ffffffffffffffffffffffffffffffffffffffff1681526020019081526020016000209050610a098484848080601f016020809104026020016040519081016040528093929190818152602001838380828437600081840152601f19601f8201169050808301925050505050505061032e565b610ac557610a15610aea565b83838080601f016020809104026020016040519081016040528093929190818152602001838380828437600081840152601f19601f820116905080830192505050505050508160000181905250600081602001818152505080826003016000846002015481526020019081526020016000206000820151816000019081610a9c9190611590565b506020820151816001015590505060018260020154610abb9190611381565b8260020181905550505b50505050565b6000808290506000818051906020012060001c90508092505050919050565b604051806040016040528060608152602001600081525090565b6000604051905090565b600080fd5b600080fd5b600073ffffffffffffffffffffffffffffffffffffffff82169050919050565b6000610b4382610b18565b9050919050565b610b5381610b38565b8114610b5e57600080fd5b50565b600081359050610b7081610b4a565b92915050565b600080fd5b600080fd5b6000601f19601f8301169050919050565b7f4e487b7100000000000000000000000000000000000000000000000000000000600052604160045260246000fd5b610bc982610b80565b810181811067ffffffffffffffff82111715610be857610be7610b91565b5b80604052505050565b6000610bfb610b04565b9050610c078282610bc0565b919050565b600067ffffffffffffffff821115610c2757610c26610b91565b5b610c3082610b80565b9050602081019050919050565b82818337600083830152505050565b6000610c5f610c5a84610c0c565b610bf1565b905082815260208101848484011115610c7b57610c7a610b7b565b5b610c86848285610c3d565b509392505050565b600082601f830112610ca357610ca2610b76565b5b8135610cb3848260208601610c4c565b91505092915050565b6000819050919050565b610ccf81610cbc565b8114610cda57600080fd5b50565b600081359050610cec81610cc6565b92915050565b600080600060608486031215610d0b57610d0a610b0e565b5b6000610d1986828701610b61565b935050602084013567ffffffffffffffff811115610d3a57610d39610b13565b5b610d4686828701610c8e565b9250506040610d5786828701610cdd565b9150509250925092565b60008060408385031215610d7857610d77610b0e565b5b6000610d8685828601610b61565b925050602083013567ffffffffffffffff811115610da757610da6610b13565b5b610db385828601610c8e565b9150509250929050565b60008115159050919050565b610dd281610dbd565b82525050565b6000602082019050610ded6000830184610dc9565b92915050565b600060208284031215610e0957610e08610b0e565b5b6000610e1784828501610b61565b91505092915050565b600081519050919050565b600082825260208201905092915050565b60005b83811015610e5a578082015181840152602081019050610e3f565b60008484015250505050565b6000610e7182610e20565b610e7b8185610e2b565b9350610e8b818560208601610e3c565b610e9481610b80565b840191505092915050565b610ea881610cbc565b82525050565b60006060820190508181036000830152610ec88186610e66565b90508181036020830152610edc8185610e66565b9050610eeb6040830184610e9f565b949350505050565b600081519050919050565b600082825260208201905092915050565b6000819050602082019050919050565b600082825260208201905092915050565b6000610f3b82610e20565b610f458185610f1f565b9350610f55818560208601610e3c565b610f5e81610b80565b840191505092915050565b610f7281610cbc565b82525050565b60006040830160008301518482036000860152610f958282610f30565b9150506020830151610faa6020860182610f69565b508091505092915050565b6000610fc18383610f78565b905092915050565b6000602082019050919050565b6000610fe182610ef3565b610feb8185610efe565b935083602082028501610ffd85610f0f565b8060005b85811015611039578484038952815161101a8582610fb5565b945061102583610fc9565b925060208a01995050600181019050611001565b50829750879550505050505092915050565b600060208201905081810360008301526110658184610fd6565b905092915050565b60008060006060848603121561108657611085610b0e565b5b600084013567ffffffffffffffff8111156110a4576110a3610b13565b5b6110b086828701610c8e565b935050602084013567ffffffffffffffff8111156110d1576110d0610b13565b5b6110dd86828701610c8e565b925050604084013567ffffffffffffffff8111156110fe576110fd610b13565b5b61110a86828701610c8e565b9150509250925092565b61111d81610b38565b82525050565b60006020820190506111386000830184611114565b92915050565b6000806040838503121561115557611154610b0e565b5b600083013567ffffffffffffffff81111561117357611172610b13565b5b61117f85828601610c8e565b925050602083013567ffffffffffffffff8111156111a05761119f610b13565b5b6111ac85828601610c8e565b9150509250929050565b600080fd5b600080fd5b60008083601f8401126111d6576111d5610b76565b5b8235905067ffffffffffffffff8111156111f3576111f26111b6565b5b60208301915083600182028301111561120f5761120e6111bb565b5b9250929050565b60008060006040848603121561122f5761122e610b0e565b5b600061123d86828701610b61565b935050602084013567ffffffffffffffff81111561125e5761125d610b13565b5b61126a868287016111c0565b92509250509250925092565b7f4e487b7100000000000000000000000000000000000000000000000000000000600052602260045260246000fd5b600060028204905060018216806112bd57607f821691505b6020821081036112d0576112cf611276565b5b50919050565b7f4e487b7100000000000000000000000000000000000000000000000000000000600052601160045260246000fd5b600061131082610cbc565b915061131b83610cbc565b9250828203905081811115611333576113326112d6565b5b92915050565b600061134482610cbc565b91507fffffffffffffffffffffffffffffffffffffffffffffffffffffffffffffffff8203611376576113756112d6565b5b600182019050919050565b600061138c82610cbc565b915061139783610cbc565b92508282019050808211156113af576113ae6112d6565b5b92915050565b7f4e487b7100000000000000000000000000000000000000000000000000000000600052603260045260246000fd5b60008190508160005260206000209050919050565b60006020601f8301049050919050565b600082821b905092915050565b6000600883026114467fffffffffffffffffffffffffffffffffffffffffffffffffffffffffffffffff82611409565b6114508683611409565b95508019841693508086168417925050509392505050565b6000819050919050565b600061148d61148861148384610cbc565b611468565b610cbc565b9050919050565b6000819050919050565b6114a783611472565b6114bb6114b382611494565b848454611416565b825550505050565b600090565b6114d06114c3565b6114db81848461149e565b505050565b5b818110156114ff576114f46000826114c8565b6001810190506114e1565b5050565b601f82111561154457611515816113e4565b61151e846113f9565b8101602085101561152d578190505b611541611539856113f9565b8301826114e0565b50505b505050565b600082821c905092915050565b600061156760001984600802611549565b1980831691505092915050565b60006115808383611556565b9150826002028217905092915050565b61159982610e20565b67ffffffffffffffff8111156115b2576115b1610b91565b5b6115bc82546112a5565b6115c7828285611503565b600060209050601f8311600181146115fa57600084156115e8578287015190505b6115f28582611574565b86555061165a565b601f198416611608866113e4565b60005b828110156116305784890151825560018201915060208501945060208101905061160b565b8683101561164d5784890151611649601f891682611556565b8355505b6001600288020188555050505b505050505050565b600081905092915050565b600061167882610e20565b6116828185611662565b9350611692818560208601610e3c565b80840191505092915050565b60006116aa828461166d565b91508190509291505056fea2646970667358221220b5c7d66bf95c63f65c7ab9b5d251f12c051a3ad5ba569a26ebbdc2dfbd54d2b764736f6c63430008130033",
  "linkReferences": {},
  "deployedLinkReferences": {}
}