{
  "_format": "hh-sol-artifact-1",
  "contractName": "Wallet",
  "sourceName": "contracts/Wallet.sol",
  "abi": [
    {
      "inputs": [
        {
          "internalType": "string",
          "name": "passwordSaver",
          "type": "string"
        },
        {
          "internalType": "string",
          "name": "password",
          "type": "string"
        },
        {
          "internalType": "string",
          "name": "username",
          "type": "string"
        }
      ],
      "name": "createUserAddress",
      "outputs": [
        {
          "internalType": "address",
          "name": "",
          "type": "address"
        }
      ],
      "stateMutability": "nonpayable",
      "type": "function"
    },
    {
      "inputs": [
        {
          "internalType": "address",
          "name": "userAddress",
          "type": "address"
        }
      ],
      "name": "getUserAssets",
      "outputs": [
        {
          "components": [
            {
              "internalType": "string",
              "name": "sign",
              "type": "string"
            },
            {
              "internalType": "uint256",
              "name": "amount",
              "type": "uint256"
            }
          ],
          "internalType": "struct Wallet.Asset[]",
          "name": "",
          "type": "tuple[]"
        }
      ],
      "stateMutability": "view",
      "type": "function"
    }
  ],
  "bytecode": "0x608060405234801561001057600080fd5b50610b24806100206000396000f3fe608060405234801561001057600080fd5b50600436106100365760003560e01c8063765ff0611461003b5780638571faff1461006b575b600080fd5b6100556004803603810190610050919061036d565b61009b565b6040516100629190610542565b60405180910390f35b61008560048036038101906100809190610699565b610242565b604051610092919061074f565b60405180910390f35b606060008060008473ffffffffffffffffffffffffffffffffffffffff1673ffffffffffffffffffffffffffffffffffffffff16815260200190815260200160002090506000816002015467ffffffffffffffff8111156100ff576100fe61056e565b5b60405190808252806020026020018201604052801561013857816020015b6101256102e1565b81526020019060019003908161011d5790505b50905060005b82600201548110156102375782600301600082815260200190815260200160002060405180604001604052908160008201805461017a90610799565b80601f01602080910402602001604051908101604052809291908181526020018280546101a690610799565b80156101f35780601f106101c8576101008083540402835291602001916101f3565b820191906000526020600020905b8154815290600101906020018083116101d657829003601f168201915b50505050508152602001600182015481525050828281518110610219576102186107ca565b5b6020026020010181905250808061022f90610828565b91505061013e565b508092505050919050565b60008061024e836102c2565b905060008060008373ffffffffffffffffffffffffffffffffffffffff1673ffffffffffffffffffffffffffffffffffffffff1681526020019081526020016000209050848160010190816102a39190610a1c565b50858160000190816102b59190610a1c565b5081925050509392505050565b6000808290506000818051906020012060001c90508092505050919050565b604051806040016040528060608152602001600081525090565b6000604051905090565b600080fd5b600080fd5b600073ffffffffffffffffffffffffffffffffffffffff82169050919050565b600061033a8261030f565b9050919050565b61034a8161032f565b811461035557600080fd5b50565b60008135905061036781610341565b92915050565b60006020828403121561038357610382610305565b5b600061039184828501610358565b91505092915050565b600081519050919050565b600082825260208201905092915050565b6000819050602082019050919050565b600081519050919050565b600082825260208201905092915050565b60005b838110156104005780820151818401526020810190506103e5565b60008484015250505050565b6000601f19601f8301169050919050565b6000610428826103c6565b61043281856103d1565b93506104428185602086016103e2565b61044b8161040c565b840191505092915050565b6000819050919050565b61046981610456565b82525050565b6000604083016000830151848203600086015261048c828261041d565b91505060208301516104a16020860182610460565b508091505092915050565b60006104b8838361046f565b905092915050565b6000602082019050919050565b60006104d88261039a565b6104e281856103a5565b9350836020820285016104f4856103b6565b8060005b85811015610530578484038952815161051185826104ac565b945061051c836104c0565b925060208a019950506001810190506104f8565b50829750879550505050505092915050565b6000602082019050818103600083015261055c81846104cd565b905092915050565b600080fd5b600080fd5b7f4e487b7100000000000000000000000000000000000000000000000000000000600052604160045260246000fd5b6105a68261040c565b810181811067ffffffffffffffff821117156105c5576105c461056e565b5b80604052505050565b60006105d86102fb565b90506105e4828261059d565b919050565b600067ffffffffffffffff8211156106045761060361056e565b5b61060d8261040c565b9050602081019050919050565b82818337600083830152505050565b600061063c610637846105e9565b6105ce565b90508281526020810184848401111561065857610657610569565b5b61066384828561061a565b509392505050565b600082601f8301126106805761067f610564565b5b8135610690848260208601610629565b91505092915050565b6000806000606084860312156106b2576106b1610305565b5b600084013567ffffffffffffffff8111156106d0576106cf61030a565b5b6106dc8682870161066b565b935050602084013567ffffffffffffffff8111156106fd576106fc61030a565b5b6107098682870161066b565b925050604084013567ffffffffffffffff81111561072a5761072961030a565b5b6107368682870161066b565b9150509250925092565b6107498161032f565b82525050565b60006020820190506107646000830184610740565b92915050565b7f4e487b7100000000000000000000000000000000000000000000000000000000600052602260045260246000fd5b600060028204905060018216806107b157607f821691505b6020821081036107c4576107c361076a565b5b50919050565b7f4e487b7100000000000000000000000000000000000000000000000000000000600052603260045260246000fd5b7f4e487b7100000000000000000000000000000000000000000000000000000000600052601160045260246000fd5b600061083382610456565b91507fffffffffffffffffffffffffffffffffffffffffffffffffffffffffffffffff8203610865576108646107f9565b5b600182019050919050565b60008190508160005260206000209050919050565b60006020601f8301049050919050565b600082821b905092915050565b6000600883026108d27fffffffffffffffffffffffffffffffffffffffffffffffffffffffffffffffff82610895565b6108dc8683610895565b95508019841693508086168417925050509392505050565b6000819050919050565b600061091961091461090f84610456565b6108f4565b610456565b9050919050565b6000819050919050565b610933836108fe565b61094761093f82610920565b8484546108a2565b825550505050565b600090565b61095c61094f565b61096781848461092a565b505050565b5b8181101561098b57610980600082610954565b60018101905061096d565b5050565b601f8211156109d0576109a181610870565b6109aa84610885565b810160208510156109b9578190505b6109cd6109c585610885565b83018261096c565b50505b505050565b600082821c905092915050565b60006109f3600019846008026109d5565b1980831691505092915050565b6000610a0c83836109e2565b9150826002028217905092915050565b610a25826103c6565b67ffffffffffffffff811115610a3e57610a3d61056e565b5b610a488254610799565b610a5382828561098f565b600060209050601f831160018114610a865760008415610a74578287015190505b610a7e8582610a00565b865550610ae6565b601f198416610a9486610870565b60005b82811015610abc57848901518255600182019150602085019450602081019050610a97565b86831015610ad95784890151610ad5601f8916826109e2565b8355505b6001600288020188555050505b50505050505056fea26469706673582212208e77c489e85b30e07e81256d1083f06d04d37103dc56d833672a06c4c4f57b9864736f6c63430008130033",
  "linkReferences": {},
  "deployedLinkReferences": {}
}